:020000040800F2
:1000000000280020A1140008091400080F1400089B
:10001000151400081B14000821140008000000003B
:10002000000000000000000000000000271400088D
:1000300033140008000000003F1400084B140008AF
:10004000E9140008E9140008E9140008E91400089C
:10005000E9140008E9140008E9140008E91400088C
:10006000E9140008E9140008E9140008E91400087C
:10007000E9140008E9140008E9140008E91400086C
:10008000E9140008E9140008E9140008E91400085C
:10009000E9140008E9140008E9140008E91400084C
:1000A000E9140008E9140008E9140008E91400083C
:1000B00059140008E914000800000000E9140008C1
:1000C000E91400080000000000000000E914000826
:1000D00000000000E9140008E91400080000000016
:1000E000E9140008E9140008E91400080000000001
:1000F0000000000000000000000000000000000000
:0C01000000000000000000005FF808F1A3
:10010C0010B5054C237833B9044B13B10448AFF345
:10011C0000800123237010BD24000020000000008B
:10012C00882B000808B5034B1BB103490348AFF3F8
:10013C00008008BD0000000028000020882B00086B
:10014C0080B582B000AF78607B68012B05D10022AE
:10015C0002210F4801F0E9FC16E07B68022B05D167
:10016C00002204210A4801F0E0FC0DE07B68032B1F
:10017C0005D100220821064801F0D7FC04E000223A
:10018C001021034801F0D1FC00BF0837BD4680BDEB
:10019C000008014080B586B000AF78603960474AEE
:1001AC0007F10C0307CA03C31A807B68012B05D126
:1001BC0001220221424801F0B8FC19E07B68022BB5
:1001CC0005D1012204213E4801F0AFFC10E07B6810
:1001DC00032B05D101220821394801F0A6FC07E0C8
:1001EC007B68042B04D101221021354801F09DFCC1
:1001FC0007F10C023B6813441B78FB75FB7D03F085
:10020C000103BB75BB7D1A4601212E4801F08DFC04
:10021C00FB7D5B08DBB203F00103BB75BB7D1A46AB
:10022C000221284801F081FCFB7D9B08DBB203F026
:10023C000103BB75BB7D1A460421224801F075FCF5
:10024C00FB7DDB08DBB203F00103BB75BB7D1A46FB
:10025C0008211C4801F069FCFB7D1B09DBB203F093
:10026C000103BB75BB7D1A461021164801F05DFCDD
:10027C00FB7D5B09DBB203F00103BB75BB7D1A464A
:10028C002021104801F051FCFB7D9B09DBB203F0EF
:10029C000103BB75BB7D1A4640210A4801F045FCA1
:1002AC00FB7DDB09BB75BB7D1A468021054801F03F
:1002BC003CFC00BF1837BD4680BD00BFA02B00081A
:1002CC0000080140000C014080B500AF9B4B1B782F
:1002DC00062B00F2828101A252F823F005030008DC
:1002EC00370300088F030008050400085D040008AC
:1002FC00D30400085D05000800F0A6FA904B1B68BB
:10030C00904A1168904A1268184600F021FB0020B0
:10031C0000F0FAF90346002B03D0884B01221A7027
:10032C005BE1864B00221A7057E100F08DFA844B8A
:10033C001968844B1A68844B1B68012000F0ACFDD3
:10034C007F4B1B68814A1360002000F0DDF90346E7
:10035C00002B02D0794B03221A70012000F0D4F943
:10036C000346002B00F02E81754B1B68632B04DCBD
:10037C00734B1B680133724A1360704B02221A7064
:10038C0020E100F061FA6E4B19686E4B1A686E4BE7
:10039C001B68012000F080FD002000F0B5F9034639
:1003AC00002B06D0694B1B68654A1360634B012216
:1003BC001A70012000F0A8F90346002B08D0604BFE
:1003CC001B68632B04DC5E4B1B6801335C4A1360B7
:1003DC00022000F099F90346002B00F0F580584BF1
:1003EC001968584B1A68584B1B68002000F054FDD4
:1003FC00524B01221A70E7E000F026FA504B1968B4
:10040C00504B1A68504B1B68022000F045FD4D4BB9
:10041C001B684E4A1360002000F076F90346002B4F
:10042C0002D0464B05221A70012000F06DF90346EC
:10043C00002B00F0CB80434B1B68632B04DC414B3F
:10044C001B6801333F4A13603C4B04221A70BDE019
:10045C0000F0FAF93A4B19683A4B1A683A4B1B6898
:10046C00022000F019FD002000F04EF90346002B8D
:10047C0006D0364B1B68334A1360304B03221A707C
:10048C00012000F041F90346002B08D02D4B1B68CE
:10049C00632B04DC2B4B1B6801332A4A13600220AC
:1004AC0000F032F90346002B00F09280244B1968BF
:1004BC00244B1A68244B1B68002000F0EDFC1F4BEA
:1004CC0003221A7084E000F0BFF91D4B19681D4B14
:1004DC001A681D4B1B68032000F0DEFC1A4B1B68CE
:1004EC001A4A1360002000F00FF90346002B12D0BB
:1004FC00144B1A68144B1B681344114A1360104BAD
:10050C001B68104A1168104A1268184600F082F9EC
:10051C000A4B00221A70012000F0F6F80346002B5B
:10052C0058D0094B1B68632B04DC074B1B68013349
:10053C00054A1360014B06221A704BE04400002060
:10054C0000000020040000200800002040000020D3
:10055C0000F07AF9224B1968224B1A68224B1B685F
:10056C00032000F099FC002000F0CEF80346002B8D
:10057C0006D01E4B1B681C4A13601D4B03221A70BD
:10058C00012000F0C1F80346002B08D0164B1B6865
:10059C00632B04DC144B1B680133134A13600220D9
:1005AC0000F0B2F80346002B16D00D4B19680D4B1A
:1005BC001A680D4B1B68002000F06EFC0C4B0522DA
:1005CC001A7009E000BF08E000BF06E000BF04E0BD
:1005DC0000BF02E000BF00E000BF00BF80BD00BF55
:1005EC000000002004000020080000204000002033
:1005FC004400002080B582B000AF00237B606FE028
:10060C003B4A7B68134419783A4A7B6813440A4680
:10061C001A707B68002B0AD12021374801F06EFA42
:10062C0003461946324A7B6813440A461A707B68A3
:10063C00012B0AD14021304801F060FA03461946DB
:10064C002B4A7B6813440A461A707B68022B0AD12A
:10065C008021294801F052FA03461946244A7B6846
:10066C0013440A461A70224A7B6813441A782149AB
:10067C007B680B441B789A4208D11D4A7B68134453
:10068C0019781E4A7B6813440A461A701B4A7B6809
:10069C0013441B78002B16D1194A7B6832F813309F
:1006AC00632B0AD8164A7B6832F81330013399B29F
:1006BC00134A7B6822F813100FE0124A7B6813442C
:1006CC0001221A7009E00E4A7B68002122F81310EF
:1006DC000C4A7B68134400221A707B6801337B60E0
:1006EC007B68022B8CDD00BF00BF0837BD4680BD88
:1006FC004C00002050000020000801404800002061
:10070C00580000205400002080B483B000AF034692
:10071C00FB71FB79022B01D9002307E0FB79064A18
:10072C00D35C002B0CBF01230023DBB218460C3723
:10073C00BD4680BC704700BF4800002080B483B029
:10074C0000AF78607B68084A82FB03129210DB17BB
:10075C00D31A064A1360064B00221A6000BF0C37EE
:10076C00BD4680BC704700BF6766666668000020A7
:10077C006C00002080B400AF094B1B68002B0BDD14
:10078C00074B1B68013B064A1360054B1B68002B8B
:10079C0002D1044B01221A6000BFBD4680BC7047D9
:1007AC00680000206C00002080B483B000AF78603B
:1007BC007B68084A82FB03129210DB17D31A064A95
:1007CC001360064B00221A6000BF0C37BD4680BC7C
:1007DC00704700BF676666666000002064000020FA
:1007EC0080B400AF094B1B68002B0BDD074B1B685B
:1007FC00013B064A1360054B1B68002B02D1044BCE
:10080C0001221A6000BFBD4680BC7047600000200A
:10081C006400002080B485B000AFF860B9607A60E5
:10082C00064AFB681360064ABB681360054A7B687E
:10083C00136000BF1437BD4680BC70470C0000200D
:10084C00100000201400002080B500AF01224FF4EE
:10085C0080713D4801F069F901224FF400713A486A
:10086C0001F063F901224FF48061374801F05DF922
:10087C0001224FF40061344801F057F901224FF482
:10088C008051314801F051F901224FF400512E48AA
:10089C0001F04BF9002201212C4801F046F900220D
:1008AC0002212A4801F041F900220421274801F0D5
:1008BC003CF900220821254801F037F900221021CB
:1008CC00224801F032F900222021204801F02DF9B4
:1008DC00002240211D4801F028F9002280211B48EC
:1008EC0001F023F900224FF48071184801F01DF932
:1008FC0000224FF40071154801F017F900224FF453
:10090C008061124801F011F900224FF400610F4888
:10091C0001F00BF900224FF480510C4801F005F95D
:10092C0000224FF40051094801F0FFF800224FF467
:10093C008041064801F0F9F800224FF400410348C9
:10094C0001F0F3F800BF80BD00080140000C01402D
:10095C0080B586B000AFF860B9607A6000237B6127
:10096C0082E2B74B1B78032B00F27B8201A252F878
:10097C0023F000BF91090008B90A0008310D0008E6
:10098C00EB0B000800224FF48071AE4801F0CDF85B
:10099C0001224FF40071AB4801F0C7F801224FF46B
:1009AC008061A84801F0C1F801224FF40061A5480C
:1009BC0001F0BBF801224FF48051A24801F0B5F8C8
:1009CC0000224FF400519F4801F0AFF89E4B1B687A
:1009DC00002B03D09D4B1B68002B03D1984B01229D
:1009EC001A7037E2994B1B68994A82FB03129210DA
:1009FC00DB17D31A19460120FFF7CCFB022000F0BD
:100A0C00D1FD0120FFF79CFB904B1A68904B83FBA8
:100A1C0002139910D317C91A0B469B000B445B00A9
:100A2C00D11A0220FFF7B6FB022000F0BBFD02201A
:100A3C00FFF786FB844B1B68854A82FB03129210DE
:100A4C00DB17D31A19460320FFF7A4FB022000F092
:100A5C00A9FD0320FFF774FB7B4B1A687C4B83FBCF
:100A6C0002139910D317C91A0B469B000B445B0059
:100A7C00D11A0420FFF78EFB022000F093FD042016
:100A8C00FFF75EFB734B1B68012B40F0E3816E4B51
:100A9C001B68013B6C4A13606C4B1B68013B6B4A37
:100AAC0013604FF47A70FFF77FFED3E100224FF40E
:100ABC008071644801F039F801224FF400716148EB
:100ACC0001F033F801224FF480615E4801F02DF8FB
:100ADC0001224FF400615B4801F027F800224FF42B
:100AEC008051584801F021F801224FF4005155482B
:100AFC0001F01BF8584B1B68002B03D0534B1B68A1
:100B0C00002B08D17A68B968F868FFF783FE4C4B64
:100B1C0003221A70A0E14D4B1B684D4A82FB031255
:100B2C009210DB17D31A19460120FFF733FB022072
:100B3C0000F038FD0120FFF703FB444B1A68444BCF
:100B4C0083FB02139910D317C91A0B469B000B4455
:100B5C005B00D11A0220FFF71DFB022000F022FDE2
:100B6C000220FFF7EDFA3C4B1B68394A82FB03125B
:100B7C009210DB17D31A19460320FFF70BFB022048
:100B8C0000F010FD0320FFF7DBFA334B1A68304BF3
:100B9C0083FB02139910D317C91A0B469B000B4405
:100BAC005B00D11A0420FFF7F5FA022000F0FAFCE2
:100BBC000420FFF7C5FA274B1B68012B40F04C8132
:100BCC00254B1B68013B244A1360204B1B68013BDF
:100BDC001E4A13604FF47A70FFF7E6FD3CE10122E8
:100BEC004FF48071174800F0A0FF01224FF4007100
:100BFC00144800F09AFF00224FF48061114800F075
:100C0C0094FF00224FF400610E4800F08EFF012289
:100C1C004FF480510B4800F088FF01224FF4005133
:100C2C00084800F082FF084B1B68002B03D0074BD1
:100C3C001B68002B12D1024B02221A700EE100BF6E
:100C4C007000002000080140140000200C0000205F
:100C5C00676666666400002010000020874B1B68E6
:100C6C00874A82FB03129210DB17D31A1946032012
:100C7C00FFF790FA022000F095FC0320FFF760FAD2
:100C8C007E4B1A687E4B83FB02139910D317C91A3B
:100C9C000B469B000B445B00D11A0420FFF77AFA39
:100CAC00022000F07FFC0420FFF74AFA754B1B680A
:100CBC00734A82FB03129210DB17D31A19460120D8
:100CCC00FFF768FA022000F06DFC0120FFF738FAFC
:100CDC006C4B1A686A4B83FB02139910D317C91A11
:100CEC000B469B000B445B00D11A0220FFF752FA13
:100CFC00022000F057FC0220FFF722FA624B1B681F
:100D0C00012B40F0AB805F4B1B68013B5D4A1360CD
:100D1C005A4B1B68013B594A13604FF47A70FFF72A
:100D2C0043FD9BE001224FF48071584800F0FDFE1A
:100D3C0000224FF40071554800F0F7FE01224FF4E9
:100D4C008061524800F0F1FE00224FF400614F48E0
:100D5C0000F0EBFE01224FF480514C4800F0E5FE10
:100D6C0001224FF40051494800F0DFFE484B1B684C
:100D7C00002B03D0414B1B68002B08D17A68B96853
:100D8C00F868FFF747FD434B00221A7068E03B4BB5
:100D9C001B683B4A82FB03129210DB17D31A1946CD
:100DAC000320FFF7F7F9022000F0FCFB0320FFF70C
:100DBC00C7F9324B1A68324B83FB02139910D317C5
:100DCC00C91A0B469B000B445B00D11A0420FFF799
:100DDC00E1F9022000F0E6FB0420FFF7B1F92C4BFF
:100DEC001B68274A82FB03129210DB17D31A194691
:100DFC000120FFF7CFF9022000F0D4FB0120FFF710
:100E0C009FF9234B1A681E4B83FB02139910D317BF
:100E1C00C91A0B469B000B445B00D11A0220FFF74A
:100E2C00B9F9022000F0BEFB0220FFF789F9164B3E
:100E3C001B68012B14D1164B1B68013B144A136021
:100E4C000E4B1B68013B0D4A13604FF47A70FFF791
:100E5C00ABFC05E000BF04E000BF02E000BF00E017
:100E6C0000BF7B6901337B617B69132B7FF779AD05
:100E7C0000BF00BF1837BD4680BD00BF0C0000206E
:100E8C0067666666140000206400002000080140BC
:100E9C00100000207000002080B586B000AFF86014
:100EAC00B9607A603B609C4B1B68002B79D0FB6867
:100EBC00032B4FD0FB68032B6FDCFB68012B03D09B
:100ECC00FB68022B23D068E04FF48071934800F04C
:100EDC0044FE01224FF40071904800F026FE0122DE
:100EEC004FF480618D4800F020FE4FF400618B4878
:100EFC0000F033FE01224FF48051884800F015FEBB
:100F0C0001224FF40051854800F00FFE45E001220C
:100F1C004FF48071814800F008FE4FF400717F4857
:100F2C0000F01BFE01224FF480617C4800F0FDFDB7
:100F3C0001224FF40061794800F0F7FD4FF4805125
:100F4C00764800F00AFE01224FF40051734800F07D
:100F5C00ECFD22E001224FF48071704800F0E5FDB9
:100F6C0001224FF400716D4800F0DFFD4FF48061F9
:100F7C006A4800F0F2FD01224FF40061674800F06E
:100F8C00D4FD01224FF48051644800F0CEFD4FF4A3
:100F9C000051624800F0E1FD00BF4FF4FA70FFF71A
:100FAC00CDFB00237B61ADE000210120FFF7F2F8BF
:100FBC00012000F0F7FA0120FFF7C2F8F9680220CF
:100FCC00FFF7E8F8012000F0EDFA0220FFF7B8F87F
:100FDC00FB68032B57D0FB68032B7BDCFB68012BD6
:100FEC0003D0FB68022B27D074E0BB684C4A82FB11
:100FFC0003129210DB17D31A19460320FFF7CAF815
:10100C00012000F0CFFA0320FFF79AF8BA68444B9E
:10101C0083FB02139910D317C91A0B469B000B4480
:10102C005B00D11A0420FFF7B5F8012000F0BAFAE2
:10103C000420FFF785F862E07B68394A82FB0312D3
:10104C009210DB17D31A19460320FFF7A3F80120DF
:10105C0000F0A8FA0320FFF773F87A68304B83FB93
:10106C0002139910D317C91A0B469B000B445B0053
:10107C00D11A0420FFF78EF8012000F093FA042017
:10108C00FFF75EF83BE03B68254A82FB03129210A7
:10109C00DB17D31A19460320FFF77CF8012000F068
:1010AC0081FA0320FFF74CF83A681D4B83FB0213BF
:1010BC009910D317C91A0B469B000B445B00D11A2D
:1010CC000420FFF767F8012000F06CFA0420FFF70A
:1010DC0037F814E000210320FFF75CF8012000F042
:1010EC0061FA0320FFF72CF800210420FFF752F8D7
:1010FC00012000F057FA0420FFF722F800BF7B69AB
:10110C0001337B617B69132B7FF74EAF00BF00BFB0
:10111C001837BD4680BD00BF6C00002000080140A0
:10112C006766666680B500AF00F0DAF900F014F877
:10113C0000F09AF800F04CF8064801F05FF94FF413
:10114C007A70FFF731FB4FF4FA70FFF7F7FAFFF7FD
:10115C00BBF8FCE77400002080B590B000AF07F13D
:10116C00180328220021184601F000FD3B1D002227
:10117C001A605A609A60DA601A610223BB6101231B
:10118C00BB621023FB6200237B6307F11803184634
:10119C0000F0FCFC0346002B01D000F0D3F80F2329
:1011AC007B600023BB600023FB6000233B610023BA
:1011BC007B613B1D0021184600F068FF0346002BA5
:1011CC0001D000F0BFF800BF4037BD4680BD000025
:1011DC0080B586B000AF07F1080300221A605A6090
:1011EC009A60DA603B4600221A605A601D4B4FF041
:1011FC0080421A601B4B41F63F725A60194B002219
:10120C009A60184B0922DA60164B00221A61154BB2
:10121C0000229A61134801F0A1F80346002B01D07B
:10122C0000F090F84FF48053BB6007F108031946A7
:10123C000C4801F037FA0346002B01D000F082F87D
:10124C0000233B6000237B603B461946054801F0B8
:10125C00FFFB0346002B01D000F074F800BF1837D9
:10126C00BD4680BD7400002080B588B000AF07F18A
:10127C00100300221A605A609A60DA602E4B9B6948
:10128C002D4A43F0200393612B4B9B6903F0200301
:10129C00FB60FB68284B9B69274A43F0040393616E
:1012AC00254B9B6903F00403BB60BB68224B9B6915
:1012BC00214A43F0080393611F4B9B6903F0080319
:1012CC007B607B68002243F61E711C4800F02DFCED
:1012DC00002247F6FF711A4800F027FC43F61E73F4
:1012EC003B6101237B610023BB610223FB6107F19E
:1012FC0010031946114800F087FAE0233B610023E4
:10130C007B610123BB6107F1100319460B4800F008
:10131C007BFA47F6FF733B6101237B610023BB61C2
:10132C000223FB6107F110031946054800F06CFA23
:10133C0000BF2037BD4680BD0010024000080140B0
:10134C00000C014080B400AF72B600BFFEE7000095
:10135C0080B485B000AF154B9B69144A43F0010370
:10136C009361124B9B6903F00103BB60BB680F4B8D
:10137C00DB690E4A43F08053D3610C4BDB6903F0FD
:10138C0080537B607B680A4B5B68FB60FB6823F0D7
:10139C00E063FB60FB6843F08063FB60044AFB681E
:1013AC00536000BF1437BD4680BC7047001002402C
:1013BC000000014080B584B000AF78607B681B688A
:1013CC00B3F1804F13D10C4BDB690B4A43F0010393
:1013DC00D361094BDB6903F00103FB60FB6800225E
:1013EC0000211C2000F0D9F91C2000F0F2F900BFFC
:1013FC001037BD4680BD00BF0010024080B400AF66
:10140C00FEE780B400AFFEE780B400AFFEE780B427
:10141C0000AFFEE780B400AFFEE780B400AF00BFC2
:10142C00BD4680BC704780B400AF00BFBD4680BCD9
:10143C00704780B400AF00BFBD4680BC704780B51C
:10144C0000AF00F093F800BF80BD000080B500AF86
:10145C00024801F01FF800BF80BD00BF74000020DF
:10146C0080B400AF00BFBD4680BC704780B582B071
:10147C0000AF78607B681B68B3F1804F05D1FFF734
:10148C00B9F8FFF7ADF9FFF775F900BF0837BD469E
:10149C0080BD00000C480D490D4A002302E0D458D1
:1014AC00C4500433C4188C42F9D30A4A0A4C0023A2
:1014BC0001E013600432A242FBD3FFF7D1FF01F02D
:1014CC0031FBFFF72FFE70470000002024000020A6
:1014DC00D42B000824000020C0000020FEE70000F0
:1014EC0080B500AF084B1B68074A43F0100313602C
:1014FC00032000F047F90F2000F008F8FFF728FF51
:10150C000023184680BD00BF0020024080B582B089
:10151C0000AF7860124B1A68124B1B7819464FF4C7
:10152C007A73B3FBF1F3B2FBF3F3184600F05FF9F7
:10153C000346002B01D001230EE07B680F2B0AD849
:10154C00002279684FF0FF3000F027F9064A7B68DB
:10155C001360002300E0012318460837BD4680BD08
:10156C0018000020200000201C00002080B400AFD8
:10157C00054B1B781A46054B1B681344034A136032
:10158C0000BFBD4680BC704720000020BC0000207E
:10159C0080B400AF024B1B681846BD4680BC704738
:1015AC00BC00002080B584B000AF7860FFF7F0FF7E
:1015BC00B8607B68FB60FB68B3F1FF3F05D00A4B5A
:1015CC001B781A46FB681344FB6000BFFFF7E0FF73
:1015DC000246BB68D31AFA689A42F7D800BF00BF1C
:1015EC001037BD4680BD00BF2000002080B485B000
:1015FC0000AF78607B6803F00703FB600C4BDB6883
:10160C00BB60BA684FF6FF031340BB60FB681A025D
:10161C00BB68134343F0BF6343F40033BB60044A1D
:10162C00BB68D36000BF1437BD4680BC704700BF99
:10163C0000ED00E080B400AF044BDB681B0A03F044
:10164C0007031846BD4680BC704700BF00ED00E0A4
:10165C0080B483B000AF0346FB7197F90730002BC1
:10166C000BDBFB7903F01F02064997F907305B0986
:10167C00012000FA02F241F8232000BF0C37BD46CE
:10168C0080BC704700E100E080B483B000AF03463B
:10169C003960FB7197F90730002B0ADB3B68DAB233
:1016AC000C4997F907301201D2B20B4483F800238E
:1016BC000AE03B68DAB20849FB7903F00F03043BFC
:1016CC001201D2B20B441A7600BF0C37BD4680BC57
:1016DC00704700BF00E100E000ED00E080B489B08D
:1016EC0000AFF860B9607A60FB6803F00703FB6138
:1016FC00FB69C3F10703042B28BF0423BB61FB69FF
:10170C000433062B02D9FB69033B00E000237B6109
:10171C004FF0FF32BB6902FA03F3DA43BB681A409D
:10172C007B699A404FF0FF317B6901FA03F3D9438F
:10173C007B680B40134318462437BD4680BC70476A
:10174C0080B582B000AF78607B68013BB3F1807FDD
:10175C0001D301230FE00A4A7B68013B53600F2140
:10176C004FF0FF30FFF790FF054B00229A60044BBF
:10177C0007221A60002318460837BD4680BD00BFFB
:10178C0010E000E080B582B000AF78607868FFF7B9
:10179C002DFF00BF0837BD4680BD80B586B000AFB9
:1017AC000346B9607A60FB7300237B61FFF742FF4D
:1017BC0078617A68B9687869FFF790FF024697F903
:1017CC000F3011461846FFF75FFF00BF1837BD46B4
:1017DC0080BD80B582B000AF0346FB7197F907302E
:1017EC001846FFF735FF00BF0837BD4680BD80B5F2
:1017FC0082B000AF78607868FFF7A2FF0346184606
:10180C000837BD4680BD000080B48BB000AF786057
:10181C00396000237B6200233B6248E101227B6A32
:10182C0002FA03F3FB613B681B68FA691340BB6166
:10183C00BA69FB699A4240F037813B685B68A34AFE
:10184C0093425ED0A14A934275D8A14A934258D094
:10185C009F4A93426FD89F4A934252D09D4A9342DB
:10186C0069D89D4A93424CD09B4A934263D89B4A79
:10187C00934246D0994A93425DD8122B2AD8122B08
:10188C0059D801A252F823F00F190008E9180008E2
:10189C00FB1800083D1900084319000843190008FB
:1018AC00431900084319000843190008431900089C
:1018BC00431900084319000843190008431900088C
:1018CC00431900084319000843190008F1180008CF
:1018DC0005190008824A934213D02CE03B68DB6860
:1018EC003B6229E03B68DB6804333B6224E03B68E5
:1018FC00DB6808333B621FE03B68DB680C333B6200
:10190C001AE03B689B68002B02D104233B6213E076
:10191C003B689B68012B05D108233B627B68FA6905
:10192C001A6109E008233B627B68FA695A6103E09B
:10193C0000233B6200E000BFBB69FF2B01D87B6832
:10194C0001E07B6804337B61BB69FF2B02D87B6AA7
:10195C009B0002E07B6A083B9B003B617B691A6839
:10196C000F213B6901FA03F3DB431A40396A3B69E7
:10197C0001FA03F31A437B691A603B685B6803F056
:10198C008053002B00F09080564B9B69554A43F0D6
:10199C0001039361534B9B6903F00103BB60BB686C
:1019AC00514A7B6A9B08023352F82330FB607B6AF6
:1019BC0003F003039B000F2202FA03F3DB43FA68E4
:1019CC001340FB607B68494A93420DD07B68484AC0
:1019DC00934207D07B68474A934201D1022304E02B
:1019EC00032302E0012300E000237A6A02F00302E1
:1019FC0092009340FA681343FB603B497B6A9B0857
:101A0C000233FA6841F823203B685B6803F48033A7
:101A1C00002B06D0384B1A683749BB6913430B604F
:101A2C0006E0354B1A68BB69DB43334913400B6046
:101A3C003B685B6803F40033002B06D02E4B5A68CE
:101A4C002D49BB6913434B6006E02B4B5A68BB69AD
:101A5C00DB43294913404B603B685B6803F48013FC
:101A6C00002B06D0244B9A682349BB6913438B6027
:101A7C0006E0214B9A68BB69DB431F4913408B601E
:101A8C003B685B6803F40013002B06D01A4BDA6832
:101A9C001949BB691343CB6006E0174BDA68BB6985
:101AAC00DB4315491340CB607B6A01337B623B6897
:101ABC001A687B6A22FA03F3002B7FF4AFAE00BFE7
:101ACC0000BF2C37BD4680BC704700BF00003210F1
:101ADC000000311000002210000021100000121034
:101AEC0000001110001002400000014000080140ED
:101AFC00000C0140001001400004014080B485B08E
:101B0C0000AF78600B467B807B689A687B881340BB
:101B1C00002B02D00123FB7301E00023FB73FB7B42
:101B2C0018461437BD4680BC704780B483B000AFF4
:101B3C0078600B467B8013467B707B78002B03D040
:101B4C007A887B681A6103E07B881A047B681A61C7
:101B5C0000BF0C37BD4680BC704780B485B000AF69
:101B6C0078600B467B807B68DB68FB607A88FB685F
:101B7C0013401A04FB68D9437B880B401A437B68DB
:101B8C001A6100BF1437BD4680BC704780B586B063
:101B9C0000AF78607B68002B01D101236CE27B687D
:101BAC001B6803F00103002B00F08780924B5B68ED
:101BBC0003F00C03042B0CD08F4B5B6803F00C036D
:101BCC00082B12D18C4B5B6803F48033B3F5803F48
:101BDC000BD1894B1B6803F40033002B6CD07B6852
:101BEC005B68002B68D1012346E27B685B68B3F528
:101BFC00803F06D1804B1B687F4A43F480331360CF
:101C0C002EE07B685B68002B0CD17B4B1B687A4AFF
:101C1C0023F480331360784B1B68774A23F48023BA
:101C2C0013601DE07B685B68B3F5A02F0CD1724B81
:101C3C001B68714A43F4802313606F4B1B686E4A18
:101C4C0043F4803313600BE06B4B1B686A4A23F43C
:101C5C0080331360684B1B68674A23F4802313603E
:101C6C007B685B68002B13D0FFF792FC386108E0AF
:101C7C00FFF78EFC02463B69D31A642B01D9032370
:101C8C00FAE15D4B1B6803F40033002BF0D014E039
:101C9C00FFF77EFC386108E0FFF77AFC02463B69EF
:101CAC00D31A642B01D90323E6E1534B1B6803F4CD
:101CBC000033002BF0D100E000BF7B681B6803F001
:101CCC000203002B63D04C4B5B6803F00C03002B1E
:101CDC000BD0494B5B6803F00C03082B1CD1464B13
:101CEC005B6803F48033002B16D1434B1B6803F065
:101CFC000203002B05D07B681B69012B01D001234B
:101D0C00BAE13D4B1B6823F0F8027B685B69DB0092
:101D1C00394913430B603AE07B681B69002B20D0D8
:101D2C00364B01221A60FFF733FC386108E0FFF7ED
:101D3C002FFC02463B69D31A022B01D903239BE1EA
:101D4C002D4B1B6803F00203002BF0D02A4B1B68B1
:101D5C0023F0F8027B685B69DB00274913430B60B7
:101D6C0015E0264B00221A60FFF712FC386108E0E0
:101D7C00FFF70EFC02463B69D31A022B01D9032351
:101D8C007AE11D4B1B6803F00203002BF0D17B683A
:101D9C001B6803F00803002B3AD07B689B69002B6F
:101DAC0019D0174B01221A60FFF7F2FB386108E0DB
:101DBC00FFF7EEFB02463B69D31A022B01D9032332
:101DCC005AE10D4B5B6A03F00203002BF0D00120AB
:101DDC0000F0A6FA1CE00A4B00221A60FFF7D8FBB1
:101DEC0038610FE0FFF7D4FB02463B69D31A022B94
:101DFC0008D9032340E100BF00100240000042421A
:101E0C00800442429E4B5B6A03F00203002BE9D133
:101E1C007B681B6803F00403002B00F0A6800023F2
:101E2C00FB75974BDB6903F08053002B0DD1944B62
:101E3C00DB69934A43F08053D361914BDB6903F028
:101E4C008053BB60BB680123FB758E4B1B6803F48E
:101E5C008073002B18D18B4B1B688A4A43F4807318
:101E6C001360FFF795FB386108E0FFF791FB024622
:101E7C003B69D31A642B01D90323FDE0814B1B680A
:101E8C0003F48073002BF0D07B68DB68012B06D148
:101E9C007B4B1B6A7A4A43F0010313622DE07B688B
:101EAC00DB68002B0CD1764B1B6A754A23F00103BF
:101EBC001362734B1B6A724A23F0040313621CE017
:101ECC007B68DB68052B0CD16D4B1B6A6C4A43F0AD
:101EDC00040313626A4B1B6A694A43F001031362E1
:101EEC000BE0674B1B6A664A23F001031362644BD9
:101EFC001B6A634A23F0040313627B68DB68002BC4
:101F0C0015D0FFF745FB38610AE0FFF741FB0246AD
:101F1C003B69D31A41F28832934201D90323ABE0D7
:101F2C00574B1B6A03F00203002BEED014E0FFF7B3
:101F3C002FFB38610AE0FFF72BFB02463B69D31AF3
:101F4C0041F28832934201D9032395E04C4B1B6A32
:101F5C0003F00203002BEED1FB7D012B05D1484B86
:101F6C00DB69474A23F08053D3617B68DB69002B24
:101F7C0000F08180424B5B6803F00C03082B61D0AE
:101F8C007B68DB69022B46D13F4B00221A60FFF7BE
:101F9C00FFFA386108E0FFF7FBFA02463B69D31AF7
:101FAC00022B01D9032367E0354B1B6803F0007348
:101FBC00002BF0D17B681B6AB3F5803F08D1304B06
:101FCC005B6823F400327B689B682D4913434B609C
:101FDC002B4B5B6823F474127B68196A7B685B6A11
:101FEC000B43274913434B60274B01221A60FFF721
:101FFC00CFFA386108E0FFF7CBFA02463B69D31AF7
:10200C00022B01D9032337E01D4B1B6803F000732F
:10201C00002BF0D02FE01C4B00221A60FFF7B8FA0F
:10202C00386108E0FFF7B4FA02463B69D31A022B79
:10203C0001D9032320E0124B1B6803F00073002B23
:10204C00F0D118E07B68DB69012B01D1012313E08F
:10205C000B4B5B68FB60FB6803F480327B681B6A8C
:10206C009A4206D1FB6803F470127B685B6A9A4251
:10207C0001D0012300E0002318461837BD4680BD6F
:10208C0000100240007000406000424280B584B0F5
:10209C0000AF786039607B68002B01D10123D0E060
:1020AC006A4B1B6803F007033A689A4210D9674BD6
:1020BC001B6823F0070265493B6813430B60634BB5
:1020CC001B6803F007033A689A4201D00123B8E079
:1020DC007B681B6803F00203002B20D07B681B6815
:1020EC0003F00403002B05D0594B5B68584A43F4AA
:1020FC00E06353607B681B6803F00803002B05D07A
:10210C00534B5B68524A43F460535360504B5B68CB
:10211C0023F0F0027B689B684D4913434B607B684E
:10212C001B6803F00103002B40D07B685B68012B1C
:10213C0007D1474B1B6803F40033002B15D1012347
:10214C007FE07B685B68022B07D1414B1B6803F077
:10215C000073002B09D1012373E03D4B1B6803F086
:10216C000203002B01D101236BE0394B5B6823F098
:10217C0003027B685B68364913434B60FFF708FA30
:10218C00F8600AE0FFF704FA0246FB68D31A41F242
:10219C008832934201D9032353E02D4B5B6803F043
:1021AC000C027B685B689B009A42EBD1274B1B6847
:1021BC0003F007033A689A4210D2244B1B6823F0B1
:1021CC00070222493B6813430B60204B1B6803F04A
:1021DC0007033A689A4201D0012332E07B681B68FE
:1021EC0003F00403002B08D0194B5B6823F4E06266
:1021FC007B68DB68164913434B607B681B6803F0F4
:10220C000803002B09D0124B5B6823F460527B68E7
:10221C001B69DB000E4913434B6000F021F80246AA
:10222C000B4B5B681B0903F00F030A49CB5C22FACA
:10223C0003F3094A1360094B1B681846FFF766F94C
:10224C00002318461037BD4680BD00BF0020024059
:10225C0000100240BC2B0008180000201C000020BD
:10226C0090B48AB000AF2A4B3C1D0FCB84E80F0012
:10227C0040F201233B800023FB610023BB61002360
:10228C007B6200237B6100233B62224B5B68FB611A
:10229C00FB6903F00C03042B02D0082B03D02DE0B8
:1022AC001D4B3B622DE0FB699B0C03F00F0307F108
:1022BC002802134413F8243C7B61FB6903F480333C
:1022CC00002B13D0134B5B685B0C03F0010307F17D
:1022DC002802134413F8283CBB617B690E4A02FBAD
:1022EC0003F2BB69B2FBF3F37B6204E07B690B4A3C
:1022FC0002FB03F37B627B6A3B6202E0064B3B62B0
:10230C0000BF3B6A18462837BD4690BC704700BFDB
:10231C00AC2B00080010024000127A0000093D00AE
:10232C0080B485B000AF78600A4B1B680A4AA2FBE8
:10233C0003235B0A7A6802FB03F3FB6000BFFB68B4
:10234C005A1EFA60002BF9D100BF00BF1437BD46EE
:10235C0080BC704718000020D34D621080B582B04D
:10236C0000AF78607B68002B01D1012341E07B68D2
:10237C0093F83D30DBB2002B06D17B68002283F84A
:10238C003C207868FFF716F87B68022283F83D2022
:10239C007B681A687B6804331946104600F06AFAA9
:1023AC007B68012283F846207B68012283F83E205B
:1023BC007B68012283F83F207B68012283F8402050
:1023CC007B68012283F841207B68012283F842203C
:1023DC007B68012283F843207B68012283F8442028
:1023EC007B68012283F845207B68012283F83D201D
:1023FC00002318460837BD4680BD000080B485B068
:10240C0000AF78607B6893F83D30DBB2012B01D0D4
:10241C00012335E07B68022283F83D207B681B6832
:10242C00DA687B681B6842F00102DA607B681B6823
:10243C00164A934209D07B681B68B3F1804F04D0D5
:10244C007B681B68124A934211D17B681B689B689E
:10245C0003F00703FB60FB68062B10D07B681B683E
:10246C001A687B681B6842F001021A6007E07B68FF
:10247C001B681A687B681B6842F001021A60002313
:10248C0018461437BD4680BC704700BF002C014075
:10249C000004004080B582B000AF78607B681B6898
:1024AC001B6903F00203022B22D17B681B68DB68DB
:1024BC0003F00203022B1BD17B681B686FF0020236
:1024CC001A617B6801221A777B681B689B6903F091
:1024DC000303002B03D0786800F0B1F905E07868AD
:1024EC0000F0A4F9786800F0B3F97B6800221A7741
:1024FC007B681B681B6903F00403042B22D17B68E7
:10250C001B68DB6803F00403042B1BD17B681B687E
:10251C006FF004021A617B6802221A777B681B68D1
:10252C009B6903F44073002B03D0786800F087F9A3
:10253C0005E0786800F07AF9786800F089F97B6832
:10254C0000221A777B681B681B6903F00803082BB1
:10255C0022D17B681B68DB6803F00803082B1BD1B6
:10256C007B681B686FF008021A617B6804221A777B
:10257C007B681B68DB6903F00303002B03D07868CE
:10258C0000F05DF905E0786800F050F9786800F02B
:10259C005FF97B6800221A777B681B681B6903F064
:1025AC001003102B22D17B681B68DB6803F010032F
:1025BC00102B1BD17B681B686FF010021A617B68B3
:1025CC0008221A777B681B68DB6903F44073002BC5
:1025DC0003D0786800F033F905E0786800F026F94C
:1025EC00786800F035F97B6800221A777B681B68E5
:1025FC001B6903F00103012B0ED17B681B68DB68A0
:10260C0003F00103012B07D17B681B686FF00102FB
:10261C001A617868FEF72AFF7B681B681B6903F058
:10262C008003802B0ED17B681B68DB6803F0800372
:10263C00802B07D17B681B686FF080021A61786869
:10264C0000F067FA7B681B681B6903F04003402BA2
:10265C000ED17B681B68DB6803F04003402B07D16D
:10266C007B681B686FF040021A61786800F0F9F81B
:10267C007B681B681B6903F02003202B0ED17B6841
:10268C001B68DB6803F02003202B07D17B681B68D9
:10269C006FF020021A61786800F032FA00BF083738
:1026AC00BD4680BD80B584B000AF786039607B6872
:1026BC0093F83C30012B01D10223B3E07B6801225B
:1026CC0083F83C207B68022283F83D207B681B68E2
:1026DC009B68FB60FB6823F07703FB60FB6823F4CB
:1026EC007F43FB607B681B68FA689A603B681B68D9
:1026FC00B3F5005F3ED0B3F5005F00F28780B3F511
:10270C00805F00F08580B3F5805F7FD8702B1AD086
:10271C00702B7BD8602B50D0602B77D8502B3CD0B3
:10272C00502B73D8402B58D0402B6FD8302B64D003
:10273C00302B6BD8202B60D0202B67D8002B5CD093
:10274C00102B5AD062E07B6818683B6899683B682C
:10275C005A683B68DB6800F05CF97B681B689B6817
:10276C00FB60FB6843F07703FB607B681B68FA68CF
:10277C009A604EE07B6818683B6899683B685A68B9
:10278C003B68DB6800F045F97B681B689A687B68DE
:10279C001B6842F480429A603BE07B6818683B6897
:1027AC0059683B68DB681A4600F0BCF87B681B680C
:1027BC005021184600F013F92BE07B6818683B6831
:1027CC0059683B68DB681A4600F0DAF87B681B68CE
:1027DC006021184600F003F91BE07B6818683B6821
:1027EC0059683B68DB681A4600F09CF87B681B68EC
:1027FC004021184600F0F3F80BE07B681A683B6840
:10280C001B681946104600F0EAF802E000BF00E031
:10281C0000BF7B68012283F83D207B68002283F88F
:10282C003C20002318461037BD4680BD80B483B0D1
:10283C0000AF786000BF0C37BD4680BC704780B4D9
:10284C0083B000AF786000BF0C37BD4680BC7047CA
:10285C0080B483B000AF786000BF0C37BD4680BC3D
:10286C00704780B483B000AF786000BF0C37BD46B2
:10287C0080BC704780B485B000AF786039607B68ED
:10288C001B68FB607B68254A934207D07B68B3F1D9
:10289C00804F03D07B68224A934208D1FB6823F017
:1028AC007003FB603B685B68FA681343FB607B68F2
:1028BC001A4A934207D07B68B3F1804F03D07B68F0
:1028CC00174A934208D1FB6823F44073FB603B68C2
:1028DC00DB68FA681343FB60FB6823F080023B68FB
:1028EC005B691343FB607B68FA681A603B689A6803
:1028FC007B68DA623B681A687B689A627B68074A75
:10290C00934203D13B681A697B681A637B68012286
:10291C005A6100BF1437BD4680BC7047002C014083
:10292C000004004080B487B000AFF860B9607A60F2
:10293C00FB681B6A7B61FB681B6A23F00102FB6866
:10294C001A62FB689B693B613B6923F0F0033B61B6
:10295C007B681B013A6913433B617B6923F00A03D3
:10296C007B617A69BB6813437B61FB683A699A6146
:10297C00FB687A691A6200BF1C37BD4680BC704781
:10298C0080B487B000AFF860B9607A60FB681B6AEE
:10299C0023F01002FB681A62FB689B697B61FB6881
:1029AC001B6A3B617B6923F470437B617B681B036F
:1029BC007A6913437B613B6923F0A0033B61BB68DD
:1029CC001B013A6913433B61FB687A699A61FB68A6
:1029DC003A691A6200BF1C37BD4680BC704780B490
:1029EC0085B000AF786039607B689B68FB60FB68E2
:1029FC0023F07003FB603A68FB68134343F0070352
:102A0C00FB607B68FA689A6000BF1437BD4680BCD7
:102A1C00704780B487B000AFF860B9607A603B60F3
:102A2C00FB689B687B617B6923F47F437B613B681C
:102A3C001A027B681A43BB6813437A6913437B61A0
:102A4C00FB687A699A6000BF1C37BD4680BC704732
:102A5C0080B485B000AF786039607B6893F83C3007
:102A6C00012B01D1022341E07B68012283F83C2039
:102A7C007B68022283F83D207B681B685B68FB60E7
:102A8C007B681B689B68BB60FB6823F07003FB6072
:102A9C003B681B68FA681343FB607B681B68FA6829
:102AAC005A607B681B68144A934209D07B681B6888
:102ABC00B3F1804F04D07B681B68104A93420CD151
:102ACC00BB6823F08003BB603B685B68BA68134348
:102ADC00BB607B681B68BA689A607B68012283F8CC
:102AEC003D207B68002283F83C20002318461437D5
:102AFC00BD4680BC704700BF002C01400004004064
:102B0C0080B483B000AF786000BF0C37BD4680BC8A
:102B1C00704780B483B000AF786000BF0C37BD46FF
:102B2C0080BC704770B500260C4D0D4C641BA41076
:102B3C00A64209D100F022F800260A4D0A4C641B6B
:102B4C00A410A64205D170BD55F8043B9847013638
:102B5C00EEE755F8043B98470136F2E7CC2B00081A
:102B6C00CC2B0008CC2B0008D02B000803460244C9
:102B7C00934200D1704703F8011BF9E7F8B500BF89
:102B8C00F8BC08BC9E467047F8B500BFF8BC08BC42
:042B9C009E4670479A
:102BA0004079243019120278001000000203040555
:102BB000060708090A0B0C0D0E0F1010000000008C
:0C2BC000000000000102030406070809E1
:042BCC0031010008CB
:042BD0000D010008EB
:102BD40005000000020000000300000005000000E2
:102BE40002000000030000000024F40010000000B4
:042BF40001000000DC
:04000005080014A13A
:00000001FF
